:100000000C942A000C9447000C9447000C94470071
:100010000C9447000C9447000C9447000C94470044
:100020000C9447000C9447000C94500D0C94270D31
:100030000C9447000C9447000C9447000C94470024
:100040000C9447000C9447000C9447000C94470014
:100050000C94470011241FBECFE5D8E0DEBFCDBF12
:1000600012E0A0E6B0E0E0E4F5E402C005900D92F5
:10007000A63BB107D9F712E0A6EBB2E001C01D9292
:10008000AE3BB107E1F70E949A000C9423220C9436
:1000900000008091B6029091B70201969093B7024A
:1000A0008093B6028091B6029091B702835F91402F
:1000B00049F4809160008150809360001092B702F3
:1000C0001092B6020895CF93DF93EC01FB010097E5
:1000D000E1F061157105C9F0442311F481E018C005
:1000E00090818881981799F4DB01FE0120E008C017
:1000F00011969C911197818111963196981739F438
:100100002F5F2417A8F38FEF03C080E001C08FE0BA
:10011000DF91CF910895662349F0482F282F392F7A
:10012000F90111928E2F841B8617D8F308950E942F
:10013000B70708952F923F924F925F926F927F92EE
:100140008F929F92AF92BF92CF92DF92EF92FF92E7
:100150000F931F93DF93CF93CDB7DEB766970FB69C
:10016000F894DEBF0FBECDBF19821A821B821C829B
:100170001D820E94F5078CE00E94A6070E94490498
:1001800083E08B8788E08A871E8682E08D8789E4FA
:1001900090E09A8B898B8AEF0E94000D0E945A0C86
:1001A000CE010A960E94C70C8FEF9FEF28EC30E03B
:1001B000F9013197F1F70197D9F789E690E0BE018F
:1001C0006F5F7F4F0E94280C89818F3F09F099C093
:1001D0000E94B70781E061E00E94BF0781E690E0DE
:1001E0000E94910782E061E00E94BF0782E790E0F1
:1001F0000E94910780E29EE428EC30E0F9013197FB
:10020000F1F70197D9F70E94B70781E061E00E94FA
:10021000BF078EE790E00E94910782E061E00E94B4
:10022000BF078FE890E00E94910780E197E228ECF9
:1002300030E0F9013197F1F70197D9F70E94B7073C
:1002400081E061E00E94BF078CE990E00E94910785
:1002500088249924689481F88C0E9D1E0AE00F2E44
:10026000F0EDEF2EF7E0FF2EF02D0F2EF8ECCF2E55
:10027000DD24F02D0E94C303182F8823D9F3F40145
:10028000808381E0602F0E94BF07812F0E94B1040C
:10029000C701F6013197F1F70197D9F781E0602F97
:1002A0000E94BF078AE20E94B1040894811C911C3D
:1002B0000D3011F00F5FDECF0E94B70781E061E0E3
:1002C0000E94BF0786EA90E00E94910784E690E0D2
:1002D00064E0AE014E5F5F4F0E94060C89E690E03D
:1002E00060E00E94FA0B88E893E128EC30E0F90125
:1002F0003197F1F70197D9F7CE01029664E00E9499
:100300008B007724222423940F2EFAE06F2EF02DF9
:1003100033240F2EF8EC8F2E9924F02DCE01069663
:100320009E8B8D8BCE0106968B8B9C8B04C12220DD
:10033000B1F50E94150D80916000882349F40E9458
:100340000D0D84E180936000222423943324F3C0B4
:1003500081E061E00E94BF0785EB90E00E94910779
:1003600082E061E00E94BF0783EC90E00E94910769
:10037000A0906000BB24CC24DD24EE24FF24870160
:100380002A2D3B2D4C2D5D2D6E2D7F2D802F912FF5
:100390000E94C20489EC90E00E949107CCC00E94A8
:1003A000B70781E061E00E94BF0781E690E00E940C
:1003B000910782E061E00E94BF0782E790E00E941F
:1003C000910720E23EE4C4010197F1F7215030404B
:1003D000D1F7CC24DD246894C1F8CC0EDD1E0F2E9D
:1003E000F0ED4F2EF7E05F2EF02D0F2EFAE0EF2EFE
:1003F000F02D0E94B70781E061E00E94BF0783ED06
:1004000090E00E94910782E061E00E94BF078CE9C2
:1004100090E00E9491078601F62C0E94C303A82E4B
:100420008823D9F3F801808382E06F2D0E94BF07F3
:100430008A2D0E94B1049201C4010197F1F7215065
:100440003040D1F782E06F2D0E94BF078AE20E9400
:10045000B104F3940F5F1F4F8D899E890817190708
:10046000E1F694E0690E84E690E064E04B895C89F3
:100470000E94390C8B899C89B60144E00E9463007C
:100480008F3F41F50E94B70781E061E00E94BF07FE
:1004900083EE90E00E94910782E061E00E94BF0736
:1004A00084EF90E00E949107CE01029664E00E94E2
:1004B0008B0020E137E2C4010197F1F72150304071
:1004C000D1F70F2EF0E37F2EF02D0F2EFAE06F2ED6
:1004D000F02D31C08F3019F53394E2E0E31590F040
:1004E0000E94B70781E061E00E94BF078EEF90E0B5
:1004F0000E94910782E061E00E94BF078DE091E0D9
:100500000E949107C60164E00E948B0028E833E155
:10051000C4010197F1F721503040D1F76E2CF3E080
:10052000F31508F066CF0E94B707222404C00F2EEF
:10053000F6E37F2EF02D772009F4F9CE84E37816C8
:1005400009F460C0871590F091E3791609F4B2C000
:10055000971520F0E0E37E1671F71EC0F2E37F16D8
:1005600009F4B0C083E3781631F7B4C097E3791685
:1005700009F4C0C0971540F0E5E37E1609F4B2C057
:10058000F6E37F16C1F66FC089E3781609F4BAC0A6
:1005900091E4791681F6EFC00E94B7070FE211E0EF
:1005A00081E061E00E94BF078EE191E00E94910727
:1005B00082E061E00E94BF07C8010E9491070E948B
:1005C000C303982F8153843058F7913329F40F2EA9
:1005D000F1E37F2EF02DAFCF923329F40F2EF2E30B
:1005E0007F2EF02DA8CF933329F40F2EF3E37F2E27
:1005F000F02DA1CF943309F09ECF0F2EF4E37F2E80
:10060000F02D99CF0E94B70781E061E00E94BF07FB
:100610008FE391E00E94910782E061E00E94BF07B2
:100620008DE491E00E9491070E94C303982F8153AB
:10063000843050F7913329F40F2EF5E37F2EF02DFF
:100640007ACF923329F40F2EF7E37F2EF02D73CF5C
:10065000943329F40F2EF0E37F2EF02D6CCF9333DB
:1006600009F069CF64CF0E94B70781E061E00E9482
:10067000BF078EE591E00E94910782E061E00E9451
:10068000BF0780E791E00E9491070E94C303982F63
:100690008153823050F7913329F40F2EF9E37F2EE6
:1006A000F02D49CF923309F046CF0F2EF1E47F2E83
:1006B000F02D41CF81E30E9497000F2EF0E37F2EB3
:1006C000F02D39CF82E30E9497000F2EF0E37F2EAA
:1006D000F02D31CF83E30E9497000F2EF0E37F2EA1
:1006E000F02D29CF85E30E9497000F2EF4E37F2E93
:1006F000F02D21CF87E30E9497000F2EF4E37F2E89
:10070000F02D19CF0E94B70780E891E00E94910771
:100710008FED0E94B10483E40E94B10481E06AE09D
:100720000E94BF070E94C303982F81538930D0F7DE
:10073000892F0E94B1040E94C303982F81538930EE
:10074000D0F7892F0E94B10428E833E1C401019752
:10075000F1F721503040D1F70E94B7078CE891E0C3
:100760000E94910728E833E1C4010197F1F7215075
:100770003040D1F7DCCE81E40E9497000F2EF6E3E3
:100780007F2EF02DD8CE8F929F92AF92BF92DF92A4
:10079000EF92FF920F931F93CF93DF93DD24C0E07E
:1007A000D0E00F2EF4EFAF2EF1E0BF2EF02D08ECCD
:1007B00010E00F2EFDE98F2EF1E09F2EF02DEE249C
:1007C0006894E2F8EC0E83E06E2D40E00E94BD08D4
:1007D00083E060E00E94CB09882311F4FF241DC050
:1007E00083E061E00E94CB09882319F4FF24F3948D
:1007F00014C083E062E00E94CB09882321F4FF2427
:100800006894F1F80AC083E063E00E94CB09882372
:1008100049F50F2EF3E0FF2EF02D9501C801019749
:10082000F1F721503040D1F783E06F2D0E94CB09C2
:10083000882361F48F2D90E0880F991F880F991FEE
:100840008C0F9D1FF401E80FF91FD08083E06F2DFE
:100850000E94CB09882331F483E06F2D0E94CB09DD
:100860008823D1F383E06E2D41E00E94BD082196DC
:10087000C430D10509F0A3CF8D2DDF91CF911F9109
:100880000F91FF90EF90DF90BF90AF909F908F906F
:10089000089583E060E040E00E942F0883E061E07B
:1008A00040E00E942F0883E062E040E00E942F08B1
:1008B00083E063E040E00E942F0883E060E041E0D5
:1008C0000E94BD0883E061E041E00E94BD0883E032
:1008D00062E041E00E94BD0883E063E041E00E94E5
:1008E000BD0883E064E041E00E942F0883E065E0FA
:1008F00041E00E942F0883E066E041E00E942F085B
:1009000083E067E041E00E942F0883E064E041E07B
:100910000E94BD0883E065E041E00E94BD0883E0DD
:1009200066E041E00E94BD0883E067E041E00E948C
:10093000BD0808950F931F9381E062E041E00E949B
:10094000BD0800ED17E0C8010197F1F781E062E012
:1009500040E00E94BD08C8010197F1F71F910F9177
:100960000895682F80E00E94990981E060E041E0ED
:100970000E94BD0881E061E040E00E94BD080E9445
:100980009A0408952F923F924F925F926F927F92B6
:100990008F929F92AF92BF92CF92DF92EF92FF928F
:1009A0000F931F93DF93CF93CDB7DEB72A970FB680
:1009B000F894DEBF0FBECDBF2A833B834C835D839B
:1009C0006E837F8388879987822F832B842B852B47
:1009D000862B872B7885872B892B21F480E30E9437
:1009E000B10471C188248394552422241A863324A7
:1009F0004424662477249924282D352D422D5A85A8
:100A0000632D742D862D972D01E00E94790D122FF4
:100A1000F32EE42ED52EC62EB72EA82E892E02E058
:100A20000E94790DA92F412E420EE1E0411608F0F7
:100A3000E92D3F0D21E03F1508F0292DFE2FF30F82
:100A4000E1E0F31708F0E92D2E2B3F2F4E0DE1E0EA
:100A50004E1508F0E92DF22FF40F21E0F41708F0FD
:100A6000292DE22B4F2F5D0D21E05D1508F0292D7A
:100A7000FE2FF50FE1E0F51708F0E92D2E2B5F2F83
:100A80006C0DE1E06C1508F0E92DF22FF60F21E076
:100A9000F61708F0292DE22B6F2F7B0D21E07B1537
:100AA00008F0292DFE2FF70FE1E0F71708F0E92DE8
:100AB0002E2B7F2F8A0D91E08A1508F0992DE22FB9
:100AC000E80F21E0E81708F0292D922B882D8A0FD6
:100AD000832E742E652E562E372E2E2E980F998328
:100AE0002A813B814C815D816E817F8188859985DA
:100AF0000F2EFAE0AF2EF02DB92CC92CD92CE92CF1
:100B0000F92C092D192D0E941515A42F052FF62E4D
:100B1000E72E122F140DE1E0121708F0E92DB32F84
:100B2000B80D21E0B31708F0292DFE2FFB0FE1E0EF
:100B3000FB1708F0E92D2E2BBF2F4A2F470DE1E0C0
:100B40004A1708F0E92DF22FF40F21E0F41708F00E
:100B5000292DE22B4F2F502F560D21E0501708F072
:100B6000292DFE2FF50FE1E0F51708F0E92D2E2BCA
:100B70005F2F6F2D650DE1E06F1508F0E92DF22F65
:100B8000F60F21E0F61708F0292DE22B6F2F7E2DAE
:100B9000730DF1E07E1508F0F92DE70F21E0E7175E
:100BA00008F0292DF22B7E2F282F220DA1E02817E7
:100BB00008F0A92D3F2F320FE1E0321708F0E92DA0
:100BC000AE2B8981890F812E5B2E242E5A87362EDB
:100BD000472E632E7A2E780E2A813B814C815D81CF
:100BE0006E817F81888599850F2EFAE0AF2EF02DDA
:100BF000B92CC92CD92CE92CF92C092D192D0E94BE
:100C0000A00E2A833B834C835D836E837F8388871A
:100C10009987822F832B842B852B862B872B988576
:100C2000892BE9858E2B09F0E7CE2A85F1E08F1616
:100C300071F4552061F4222051F4222341F4332031
:100C400031F4442021F4662011F47720E1F1282DBD
:100C5000352D422D5A85632D742D862D972D0F2EFF
:100C6000FAE0AF2EF02DBB24CC24DD24EE24FF24AB
:100C700000E010E00E941515822F805D0E94B104F3
:100C8000282D352D422D5A85632D742D862D972DB7
:100C90000E94A00E822E532E242E5A87362E472EC7
:100CA000682E792E71E0871691F6552081F6222064
:100CB00071F6552361F6332051F6442041F6662043
:100CC00031F6772021F62A960FB6F894DEBF0FBED4
:100CD000CDBFCF91DF911F910F91FF90EF90DF90EB
:100CE000CF90BF90AF909F908F907F906F905F90CC
:100CF0004F903F902F9008952F923F924F925F9286
:100D00006F927F928F929F92AF92BF92CF92DF921B
:100D1000EF92FF920F931F937B018C010E94F80DBD
:100D20000E94C2048EE20E94B104C801B70120E013
:100D300034E244E759E40E94851B0E94F80D922E8C
:100D4000832E742E652E562E472E382E292E0F2ECA
:100D5000FAE0AF2EF02DBB24CC24DD24EE24FF24BA
:100D600000E010E00E941515992321F5992309F060
:100D7000A4C08823F9F4882309F09FC07723D1F415
:100D8000772309F09AC06623A9F4662309F095C079
:100D9000552381F4552309F090C0442359F444238A
:100DA00009F08BC0332331F4332309F086C025309A
:100DB00008F483C0292D382D472D562D652D742D0F
:100DC000832D922D0F2EFAE0AF2EF02DBB24CC24D4
:100DD000DD24EE24FF2400E010E00E94A00EF32F9B
:100DE000A42FB52F162F072FF82ED92EE22EE3941D
:100DF000E1E0E21608F0E0E03F2F21E0FF1708F005
:100E000020E0FE2FF30FE1E0F31708F0E0E02E2BD7
:100E10003F2F4A2FE1E0AA1708F0E0E0F22FF40F8D
:100E200021E0F41708F020E0E22B4F2F5B2F21E0A8
:100E3000BB1708F020E0FE2FF50FE1E0F51708F0F2
:100E4000E0E02E2B5F2F612FE1E0111708F0E0E0CA
:100E5000F22FF60F21E0F61708F020E0E22B6F2FBB
:100E6000702F81E0001708F080E0E70F21E0E7171E
:100E700008F020E0822B7E2F2F2D91E0FF1408F048
:100E800090E0820FE1E0821708F0E0E09E2B2E2D2B
:100E90009D0D0F2EF0EAAF2EF02D0F2EF6E8BF2E8F
:100EA000F02DCC24C394DD24EE24FF2400E010E0D8
:100EB0000E9415150E94C20423C0292D382D472DEC
:100EC000562D652D742D832D922D0F2EFAE0AF2E09
:100ED000F02DBB24CC24DD24EE24FF2400E010E020
:100EE0000E94A00E0F2EF0EAAF2EF02D0F2EF6E886
:100EF000BF2EF02DCC24C3940E9415150E94C2046D
:100F00001F910F91FF90EF90DF90CF90BF90AF9027
:100F10009F908F907F906F905F904F903F902F9019
:100F200008951F93CF93DF93EC018881882351F0BC
:100F300010E01F5F0E94B104FE01E10FF11D8081EE
:100F40008823B9F7DF91CF911F910895682F80E032
:100F50000E94990981E060E040E00E94BD0881E0C4
:100F600061E040E00E94BD080E949A04089581E07B
:100F70000E94A60780EA9FE00197F1F7089581306B
:100F800029F4862F81580E94A6070895823021F403
:100F9000862F81540E94A6070895CF92DF92EF9288
:100FA000FF920F931F93D82EC62E7A0180E40E94E1
:100FB000A607F70181918F010E94B104F801808199
:100FC0000E94B1048D2D6C2D0E94BF07F701808116
:100FD0000E94B104F80180810E94B1041F910F9119
:100FE000FF90EF90DF90CF9008950F931F9380E0D4
:100FF0006FEF0E94880981E061E041E00E942F08C4
:1010000081E062E041E00E942F0881E060E041E081
:101010000E942F0824EF31E048EC50E0CA0101970C
:10102000F1F721503040D1F78CE30E94A60700ED84
:1010300017E0C8010197F1F78FE00E94A607C801E9
:101040000197F1F781E00E94A60780EA9FE00197EF
:10105000F1F786E00E94A6071F910F910895813055
:1010600051F1813038F0823009F446C0833009F004
:1010700083C063C0442321F0413009F07DC00EC01D
:10108000EAE3F0E0208181E090E002C0880F991F40
:101090006A95E2F78095822380830895EAE3F0E081
:1010A000208181E090E002C0880F991F6A95E2F7E5
:1010B000282B20830895442321F0413009F05CC09F
:1010C0000EC0E7E3F0E0208181E090E002C0880FED
:1010D000991F6A95E2F78095822380830895E7E35C
:1010E000F0E0208181E090E002C0880F991F6A95AE
:1010F000E2F7282B20830895442321F0413009F0A2
:101100003BC00EC0E4E3F0E0208181E090E002C04B
:10111000880F991F6A95E2F780958223808308954E
:10112000E4E3F0E0208181E090E002C0880F991FA5
:101130006A95E2F7282B20830895442319F0413063
:10114000D9F40EC0E1E3F0E0208181E090E002C03C
:10115000880F991F6A95E2F780958223808308950E
:10116000E1E3F0E0208181E090E002C0880F991F68
:101170006A95E2F7282B20830895813051F1813060
:1011800038F0823009F446C0833009F083C063C070
:10119000442321F0413009F07DC00EC0EBE3F0E0C4
:1011A000208181E090E002C0880F991F6A95E2F7E4
:1011B0008095822380830895EBE3F0E0208181E035
:1011C00090E002C0880F991F6A95E2F7282B2083D0
:1011D0000895442321F0413009F05CC00EC0E8E3DB
:1011E000F0E0208181E090E002C0880F991F6A95AD
:1011F000E2F78095822380830895E8E3F0E0208180
:1012000081E090E002C0880F991F6A95E2F7282BD1
:1012100020830895442321F0413009F03BC00EC0E3
:10122000E5E3F0E0208181E090E002C0880F991FA3
:101230006A95E2F78095822380830895E5E3F0E0E4
:10124000208181E090E002C0880F991F6A95E2F743
:10125000282B20830895442319F04130D9F40EC07F
:10126000E2E3F0E0208181E090E002C0880F991F66
:101270006A95E2F78095822380830895E2E3F0E0A7
:10128000208181E090E002C0880F991F6A95E2F703
:10129000282B208308958130A1F0813028F08230FE
:1012A000E9F08330A1F527C0EBE3F0E0208181E095
:1012B00090E002C0880F991F6A95E2F728272083E3
:1012C0000895E8E3F0E0208181E090E002C0880F1B
:1012D000991F6A95E2F7282720830895E5E3F0E057
:1012E000208181E090E002C0880F991F6A95E2F7A3
:1012F000282720830895E2E3F0E0208181E090E058
:1013000002C0880F991F6A95E2F728272083089565
:10131000813049F0813028F0823039F0833041F457
:1013200006C06ABB089567BB089564BB089561BB9E
:101330000895813049F0813028F0823039F08330CF
:1013400041F406C06BBB089568BB089565BB089562
:1013500062BB0895813069F0813028F0823079F0E5
:101360008330C1F412C0EBE3F0E08081809580838C
:101370000895E8E3F0E08081809580830895E5E3B7
:10138000F0E08081809580830895E2E3F0E0808141
:10139000809580830895813081F0813028F08230FB
:1013A000A9F0833021F51BC089B390E002C0959568
:1013B00087956A95E2F78170089586B390E002C040
:1013C000959587956A95E2F78170089583B390E0CB
:1013D00002C0959587956A95E2F78170089580B36C
:1013E00090E002C0959587956A95E2F7817008951F
:1013F000813049F0813028F0823039F0833041F477
:1014000006C089B3089586B3089583B3089580B361
:1014100008958130C9F1813038F0823009F464C018
:10142000833009F0BFC090C0662321F0613009F01D
:10143000B9C015C080E060E040E00E942F0880E065
:1014400061E040E00E942F0880E062E040E00E94FE
:101450002F0880E063E040E00E942F08089580E0BC
:1014600060E041E00E942F0880E061E041E00E94DE
:101470002F0880E062E041E00E942F0880E063E0F6
:1014800041E00E942F080895662321F0613009F0A1
:1014900089C015C081E060E040E00E942F0881E033
:1014A00061E040E00E942F0881E062E040E00E949D
:1014B0002F0881E063E040E00E942F08089581E05A
:1014C00060E041E00E942F0881E061E041E00E947D
:1014D0002F0881E062E041E00E942F0881E063E094
:1014E00041E00E942F080895662321F0613009F041
:1014F00059C015C082E060E040E00E942F0882E001
:1015000061E040E00E942F0882E062E040E00E943B
:101510002F0882E063E040E00E942F08089582E0F7
:1015200060E041E00E942F0882E061E041E00E941B
:101530002F0882E062E041E00E942F0882E063E031
:1015400041E00E942F080895662319F0613051F59B
:1015500015C083E060E040E00E942F0883E061E076
:1015600040E00E942F0883E062E040E00E942F08E4
:1015700083E063E040E00E942F08089583E060E08C
:1015800041E00E942F0883E061E041E00E942F08C3
:1015900083E062E041E00E942F0883E063E041E0E5
:1015A0000E942F0808958130C9F1813038F08230CF
:1015B00009F464C0833009F0BFC090C0662321F0F5
:1015C000613009F0B9C015C080E064E040E00E94DD
:1015D0002F0880E065E040E00E942F0880E066E090
:1015E00040E00E942F0880E067E040E00E942F0862
:1015F000089580E064E041E00E942F0880E065E00B
:1016000041E00E942F0880E066E041E00E942F0840
:1016100080E067E041E00E942F080895662321F0F2
:10162000613009F089C015C081E064E040E00E94AB
:101630002F0881E065E040E00E942F0881E066E02D
:1016400040E00E942F0881E067E040E00E942F0800
:10165000089581E064E041E00E942F0881E065E0A8
:1016600041E00E942F0881E066E041E00E942F08DF
:1016700081E067E041E00E942F080895662321F091
:10168000613009F059C015C082E064E040E00E947A
:101690002F0882E065E040E00E942F0882E066E0CB
:1016A00040E00E942F0882E067E040E00E942F089F
:1016B000089582E064E041E00E942F0882E065E046
:1016C00041E00E942F0882E066E041E00E942F087E
:1016D00082E067E041E00E942F080895662319F038
:1016E000613051F515C083E064E040E00E942F08AE
:1016F00083E065E040E00E942F0883E066E040E080
:101700000E942F0883E067E040E00E942F080895C0
:1017100083E064E041E00E942F0883E065E041E05F
:101720000E942F0883E066E041E00E942F0883E0DA
:1017300067E041E00E942F0808956F70813081F0CA
:10174000813028F08230A9F0833021F51BC0EBE313
:10175000F0E08081807F80838081862B8083089564
:10176000E8E3F0E08081807F80838081862B808326
:101770000895E5E3F0E08081807F80838081862B7F
:1017800080830895E2E3F0E08081807F8083808120
:10179000862B808308956295607F813081F081304F
:1017A00028F08230A9F0833021F51BC0EBE3F0E094
:1017B00080818F7080838081862B80830895E8E309
:1017C000F0E080818F7080838081862B80830895F4
:1017D000E5E3F0E080818F7080838081862B8083B9
:1017E0000895E2E3F0E080818F7080838081862B12
:1017F000808308959C01ECE3F0E0808181FDFDCFC2
:101800003FBB2EBB6DBBE29AE19A0895DF92EF9247
:10181000FF920F931F93CF93DF937C01D62E8A0103
:10182000662371F0C0E0D0E0F801EC0FFD1FCE019F
:101830008E0D9F1D60810E94FA0B2196CD15A0F39D
:10184000DF91CF911F910F91FF90EF90DF9008955E
:101850009C01DB01ECE3F0E0808181FDFDCF3FBB2B
:101860002EBBECE3F0E08081816080838DB38C93AC
:101870000895DF92EF92FF920F931F93CF93DF9320
:101880007C01D62E8A01662369F0C0E0D0E0B80161
:101890006C0F7D1FCE018E0D9F1D0E94280C21967E
:1018A000CD15A8F3DF91CF911F910F91FF90EF908D
:1018B000DF900895EFE5F0E08081806880830895EF
:1018C000EFE5F0E080818F7780830895CF93DF93F9
:1018D000EC01009711F480E029C0EDE2F0E0108205
:1018E000AEE2B0E01C9280818F7B80832081888172
:1018F0009E81892B822B9C81892B9885892B9A85A7
:10190000892B808330818A819B81282F2370232B10
:1019100020832C9196958795969587958170822B3B
:101920008C9380819C85892B808381E0DF91CF918E
:101930000895DC01009711F480E00895EDE2F0E0F5
:10194000108280818F7B808320818C9114969C9162
:101950001497892B822B12969C911297892B16969D
:101960009C911697892B18969C911897892B8083A8
:1019700080811A969C91892B808381E008958FB98C
:10198000EEE2F0E080818823ECF78FB10895DC016E
:10199000009799F1E3E5F0E080819C91892B149602
:1019A0009C911497892B8083E9E5F0E08081129661
:1019B0009C911297892B13969C911397892B808366
:1019C00011968C9111978093BD0215968D919C91E3
:1019D0001697009711F420E005C09093BB02809306
:1019E000BA0221E017968D919C911897009729F0E3
:1019F0009093B9028093B80201C020E0822F08952D
:101A00008CBF089582BF0895FC01009711F480E017
:101A1000089582B7808381E00895E3E5F0E0808156
:101A2000887F80831092BC0208958091BC02882335
:101A300069F4E3E5F0E08081887F80838081909184
:101A4000BD02892B808381E08093BC0208951F92A0
:101A50000F920FB60F9211242F933F934F935F93E2
:101A60006F937F938F939F93AF93BF93EF93FF9366
:101A7000E091BA02F091BB02309709F00995FF910D
:101A8000EF91BF91AF919F918F917F916F915F91F6
:101A90004F913F912F910F900FBE0F901F9018956F
:101AA0001F920F920FB60F9211242F933F934F93D3
:101AB0005F936F937F938F939F93AF93BF93EF93B6
:101AC000FF93E091B802F091B902309709F00995BF
:101AD000FF91EF91BF91AF919F918F917F916F9106
:101AE0005F914F913F912F910F900FBE0F901F90DC
:101AF0001895EF92FF920F93DF93CF93CDB7DEB798
:101B000060970FB6F894DEBF0FBECDBFA82F00239D
:101B100009F461C07E010894E11CF11C88E0F70122
:101B200011928A95E9F729833A834B835C836D830D
:101B30007E83AF83988780E2801BE82FFF27E7FD35
:101B4000F09549815A816B817C81181684F0198641
:101B50001A861B861C86882799278E1B9F0B04C01C
:101B6000440F551F661F771F8A95D2F728C0202F74
:101B7000332727FD3095DB01CA01022E04C0880FF0
:101B8000991FAA1FBB1F0A94D2F789879A87AB8730
:101B9000BC8704C07695679557954795EA95D2F727
:101BA0008D819E81AF81B88504C0880F991FAA1FBF
:101BB000BB1F2A95D2F7482B592B6A2B7B2B4D87BD
:101BC0005E876F87788B29853A854B855C856D8527
:101BD0007E85AF8598898A2F60960FB6F894DEBF10
:101BE0000FBECDBFCF91DF910F91FF90EF90089581
:101BF000A0E0B0E0EEEFFDE00C9467227B018C01E9
:101C000020E030E040E85FE30E945B1D88234CF455
:101C1000AA24BB24CC24DD24EE24FF2400E010E021
:101C200086C0C801B70120E030E040E85FE40E94D0
:101C30005B1D882354F4C801B7010E94531E5B0149
:101C40006C01EE24FF24870172C0C801B70120E0B7
:101C500030E040E85FE50E945B1D87FD0FC0AA24CD
:101C6000AA94BB24BA94CC24CA94DD24DA94EE243A
:101C7000EA94FF24FA940FEF1FEF59C0C801B7018F
:101C800020E030E040E85FE20E94851B7B018C0190
:101C900022243324210190E1A92EB12CC12CD12C76
:101CA000C0E0D0E061E070E080E090E00A2C04C089
:101CB000660F771F881F991F0A94D2F70E948B1D09
:101CC0003B014C01C801B701A40193010E942B1DE7
:101CD000882364F02A283B284C285D28C801B701D6
:101CE000A40193010E947F1C7B018C01D694C794B0
:101CF000B794A7942196C530D105A1F6C801B701C4
:101D000020E030E040E85FE40E94851B0E94531E03
:101D10005B016C019B01A60160E070E080E090E057
:101D2000022D0E94790D59016A017B018C019501F8
:101D3000A601B701C801CDB7DEB7E2E10C9483225A
:101D4000AEE5B0E0E6EAFEE00C946722A8E04E01C2
:101D50000894811C911CF4016A2E11926A94E9F78F
:101D600029833A834B835C836D837E838F8398873B
:101D7000CE010996FC011192AA95E9F7A986BA86C7
:101D8000CB86DC86ED86FE860F87188B29843A8405
:101D90004B845C84ED84FE840F85188969807A8089
:101DA0008B809C806DA67EA68FA698AA6D807E8073
:101DB0008F809884E114F1040105110509F0B3C383
:101DC000621473048404950408F03DC100E02016F9
:101DD00000E0300601E0400600E0500688F41FEF06
:101DE000211631044104510439F030F048E0E42E6A
:101DF000F12C012D112D18C0EE24FF24870114C0F1
:101E000020E0221620E0320620E0420621E05206C1
:101E100030F038E1E32EF12C012D112D05C020E129
:101E2000E22EF12C012D112DD201C1010E2C04C086
:101E3000B695A795979587950A94D2F78B549E4FA0
:101E4000DC012C9180E290E0A0E0B0E08E199F09C7
:101E5000A00BB10B7C018D01E21AF10801091109F7
:101E6000E114F10401051105A1F10E2C04C0220CAE
:101E7000331C441C551C0A94D2F7A40193010E2C68
:101E800004C0220F331F441F551F0A94D2F780E26B
:101E900090E08E199F096DA47EA48FA498A804C019
:101EA00096948794779467948A95D2F7622A732AD6
:101EB000842A952AADA4BEA4CFA4D8A804C0AA0C95
:101EC000BB1CCC1CDD1CEA94D2F7ADA6BEA6CFA6E7
:101ED000D8AA6201EE24FF24CDAADEAAEFAAF8AEAA
:101EE000920181012070307009AF1AAF2BAF3CAF67
:101EF000C401B301A70196010E9445227B018C0118
:101F0000C401B3012DA93EA94FA958AD0E94452295
:101F1000C901DA013C014D01C401B30129AD3AAD5B
:101F20004BAD5CAD0E9426229B01AC018701FF24D2
:101F3000EE24ADA4BEA4CFA4D8A8C601AA27BB276F
:101F400057016801A82AB92ACA2ADB2AA216B306B1
:101F5000C406D506E0F40894610871088108910868
:101F6000A20CB31CC41CD51CA214B304C404D50415
:101F700070F0A216B306C406D50648F408946108AA
:101F8000710881089108A20CB31CC41CD51CA21AAC
:101F9000B30AC40AD50AC601B5012DA93EA94FA9A5
:101FA00058AD0E9445227B018C01C601B5012DA9C7
:101FB0003EA94FA958AD0E944522C901DA015C0132
:101FC0006D01C601B50129AD3AAD4BAD5CAD0E94C6
:101FD00026229B01AC018701FF24EE248DA59EA53E
:101FE000AFA5B8A9A070B070E82AF92A0A2B1B2B5C
:101FF000E216F30604071507C0F40894A108B10817
:10200000C108D108E20CF31C041D151DE214F304F1
:102010000405150550F0E216F3060407150728F429
:102020000894A108B108C108D108D30199278827CD
:1020300086017501E82AF92A0A2B1B2BE9AAFAAABC
:102040000BAB1CABCFC4211431044104510471F417
:1020500061E070E080E090E020E030E040E050E0BF
:102060000E944522C901DA011C012D0100E0201661
:1020700000E0300601E0400600E0500688F41FEF63
:10208000211631044104510431F028F048E050E0B9
:1020900060E070E017C040E050E060E070E012C027
:1020A00020E0221620E0320620E0420621E052061F
:1020B00028F048E150E060E070E004C040E150E00A
:1020C00060E070E0D201C101042E04C0B695A7956E
:1020D000979587950A94D2F78B549E4FDC012C91EB
:1020E000E0E2EE2EF12C012D112DD801C701841B49
:1020F000950BA60BB70B821B9109A109B10900979B
:10210000A105B10561F464015301A218B308C40824
:10211000D50831E0632E712C812C912C1EC16F9655
:102120008FAF6F97082E04C0220C331C441C551C23
:102130000A94D2F7EE2DE81B640153010E2E04C061
:10214000D694C794B794A7940A94D2F7A4019301A4
:102150006F960FAC6F9704C0220F331F441F551F9B
:102160000A94D2F76DA47EA48FA498A80E2E04C062
:1021700096948794779467940A94D2F784017301B4
:10218000E22AF32A042B152BE9A6FAA60BA71CA713
:1021900032018824992492018101207030702196A7
:1021A0000CAF1DAF2EAF3FAF2197C601B501A40103
:1021B00093010E9445227B018C01C601B501A40157
:1021C00093010E944522C901DA0125968CAF9DAF8B
:1021D000AEAFBFAF2597BC01CD0121962CAD3DAD73
:1021E0004EAD5FAD21970E9426229B01AC01870175
:1021F000FF24EE24A9A4BAA4CBA4DCA4C601AA2778
:10220000BB275C016D01AE28BF28C02AD12AA216C7
:10221000B306C406D50660F525966CAD7DAD8EADD2
:102220009FAD2597615070408040904025966CAFDF
:102230007DAF8EAF9FAF2597A20CB31CC41CD51CDD
:10224000A214B304C404D50498F0A216B306C406BD
:10225000D50670F4615070408040904025966CAF78
:102260007DAF8EAF9FAF2597A20CB31CC41CD51CAD
:10227000A21AB30AC40AD50AC601B501A401930182
:102280000E9445227B018C01C601B501A401930186
:102290000E944522C901DA013C014D01C401B3018C
:1022A00021962CAD3DAD4EAD5FAD21970E9426220B
:1022B0009B01AC018701FF24EE2489A59AA5ABA55B
:1022C000BCA5A070B07057016801A82AB92ACA2A13
:1022D000DB2AA216B306C406D506E0F4089461080A
:1022E000710881089108A20CB31CC41CD51CA2144F
:1022F000B304C404D50470F0A216B306C406D50610
:1023000048F408946108710881089108A20CB31C74
:10231000C41CD51C8DA59EA5AFA5B8A96F960FAC02
:102320006F9704C0880F991FAA1FBB1F0A94D2F78A
:102330008DA79EA7AFA7B8ABA21AB30AC40AD50A45
:102340002596ECACFDAC0EAD1FAD2597D7019927B6
:102350008827682A792A8A2A9B2A820122273327FA
:1023600029960CAF1DAF2EAF3FAF2997A201910167
:10237000407050702D962CAF3DAF4EAF5FAF2D9794
:10238000C601B50129962CAD3DAD4EAD5FAD299787
:102390000E9445227B018C01C601B50129962CAD16
:1023A0003DAD4EAD5FAD29970E944522C901DA01CE
:1023B00061968CAF9DAFAEAFBFAF6197BC01CD0151
:1023C0002D962CAD3DAD4EAD5FAD2D970E942622D2
:1023D0009B01AC018701FF24EE24ADA4BEA4CFA4D1
:1023E000D8A8C601AA27BB2757016801A82AB92A7D
:1023F000CA2ADB2AA216B306C406D50660F5619682
:102400006CAD7DAD8EAD9FAD6197615070408040E9
:10241000904061966CAF7DAF8EAF9FAF6197A20C7D
:10242000B31CC41CD51CA214B304C404D50498F076
:10243000A216B306C406D50670F461507040804001
:10244000904061966CAF7DAF8EAF9FAF6197A20C4D
:10245000B31CC41CD51CA21AB30AC40AD50AC601EF
:10246000B50129962CAD3DAD4EAD5FAD29970E94CB
:1024700045227B018C01C601B50129962CAD3DADED
:102480004EAD5FAD29970E944522C901DA015C017A
:102490006D01C601B5012D962CAD3DAD4EAD5FADC4
:1024A0002D970E9426229B01AC018701FF24EE2478
:1024B0008DA59EA5AFA5B8A9A070B070E82AF92A8D
:1024C0000A2B1B2BE216F30604071507C0F4089429
:1024D000A108B108C108D108E20CF31C041D151DA8
:1024E000E214F3040405150550F0E216F3060407A0
:1024F000150728F40894A108B108C108D10861960D
:10250000ECACFDAC0EAD1FAD6197D70199278827C4
:1025100096018501082B192B2A2B3B2B09AB1AABF3
:102520002BAB3CAB62C26E147F048006910608F4AC
:1025300051C220E0E21620E0F20621E0020720E08E
:10254000120788F43FEFE316F1040105110531F09D
:1025500028F048E050E060E070E017C040E050E054
:1025600060E070E012C040E0E41640E0F40640E0B5
:10257000040741E0140728F048E150E060E070E013
:1025800004C040E150E060E070E0D801C701042ED3
:1025900004C0B695A795979587950A94D2F78B5462
:1025A0009E4FDC012C9130E2A32EB12CC12CD12CFA
:1025B000D601C501841B950BA60BB70B821B910995
:1025C000A109B1090097A105B10589F4E614F70442
:1025D0000805190508F4F2C16DA47EA48FA498A87B
:1025E000621473048404950408F0E8C1F3C16E9684
:1025F0008FAF6E97082E04C0EE0CFF1C001F111F3A
:102600000A94D2F76A2D681BD201C101062E04C0BC
:10261000B695A795979587950A94D2F75C016D01B9
:10262000AE28BF28C02AD12AADA2BEA2CFA2D8A66A
:10263000720161016E960FAC6E9704C0CC0CDD1C6C
:10264000EE1CFF1C0A94D2F7C9A2DAA2EBA2FCA2EC
:1026500064015301062E04C0D694C794B794A7947E
:102660000A94D2F7D401C3016E960FAC6E9704C0E2
:10267000880F991FAA1FBB1F0A94D2F7EDA4FEA4CE
:102680000FA518A904C016950795F794E7946A95C5
:10269000D2F737014801682A792A8A2A9B2A6D8E47
:1026A0007E8E8F8E98A2EDA0FEA00FA118A53801F6
:1026B00088249924980187012070307065960CAFAA
:1026C0001DAF2EAF3FAF6597C601B501A4019301C1
:1026D0000E9445227B018C01C601B501A401930132
:1026E0000E944522C901DA011C012D01C201B1017C
:1026F00065962CAD3DAD4EAD5FAD65970E9426222F
:102700009B01AC018701FF24EE24AD8CBE8CCF8CE5
:10271000D8A0C601AA27BB2757016801A82AB92A51
:10272000CA2ADB2AA216B306C406D50600F5089409
:102730002108310841085108EDA0FEA00FA118A5FD
:10274000AE0CBF1CC01ED11EAE14BF04C006D10605
:1027500070F0A216B306C406D50648F40894210802
:10276000310841085108AE0CBF1CC01ED11EA21A70
:10277000B30AC40AD50AC601B501A40193010E9497
:1027800045227B018C01C601B501A40193010E9481
:102790004522C901DA013C014D01C401B30165962E
:1027A0002CAD3DAD4EAD5FAD65970E9426229B01DD
:1027B000AC018701FF24EE248D8D9E8DAF8DB8A1D5
:1027C000A070B07057016801A82AB92ACA2ADB2A6A
:1027D000A216B306C406D50600F508946108710870
:1027E000810891086DA17EA18FA198A5A60EB71EA4
:1027F000C81ED91EA616B706C806D90670F0A216BE
:10280000B306C406D50648F4089461087108810827
:102810009108A60EB71EC81ED91ED601C501821B7F
:10282000930BA40BB50B898F9A8FAB8FBC8FD10103
:102830009927882764015301A82AB92ACA2ADB2AC2
:10284000A9AABAAACBAADCAA860175012FEF3FEF8D
:1028500040E050E0E222F32204231523A60166277C
:1028600077276D964CAF5DAF6EAF7FAF6D97A9A028
:10287000BAA0CBA0DCA06FEF7FEF80E090E0A622B3
:10288000B722C822D92289A19AA1ABA1BCA11D015E
:1028900044245524C801B701A60195010E942622AF
:1028A00069966CAF7DAF8EAF9FAF6997C801B701D6
:1028B000A20191010E9426223B014C016D966CAD54
:1028C0007DAD8EAD9FAD6D97A60195010E9426222C
:1028D0007B018C016D966CAD7DAD8EAD9FAD6D971E
:1028E000A20191010E9426225B016C01A8019701BF
:1028F000260D371D481D591D69966CAC7DAC8EACFC
:102900009FAC6997C401AA27BB27280F391F4A1F0C
:102910005B1F2E153F054007510748F4E12CF12CB1
:1029200061E0062F112DAE0CBF1CC01ED11ECA01C6
:10293000AA27BB27BC01CD016A0D7B1D8C1D9D1DE7
:10294000698C7A8C8B8C9C8C661677068806990627
:1029500040F1661577058805990509F043C0D9014E
:102960009927882769962CAD3DAD4EAD5FAD69972F
:1029700040705070820F931FA41FB51F2DA53EA558
:102980004FA558A96E960FAC6E9704C0220F331F47
:10299000441F551F0A94D2F7281739074A075B07C7
:1029A00008F509A91AA92BA93CA9015010402040FB
:1029B000304009AB1AAB2BAB3CAB14C06624772478
:1029C000430121E030E040E050E029AB3AAB4BABB3
:1029D0005CAB0BC066247724430119AA1AAA1BAA70
:1029E0001CAA03C0662477244301FE01719688E087
:1029F000DF011D928A95E9F7A9A8BAA8CBA8DCA89F
:102A0000A98ABA8ACB8ADC8A6D8A7E8A8F8A988E56
:102A100029A93A894B895C89662D7E898F89988D91
:102A2000C25ADF4FE2E10C948322ABE5B0E0EBE168
:102A3000F5E10C946722A8E04E010894811C911CDA
:102A4000F4016A2E11926A94E9F729833A834B8341
:102A50005C836D837E838F839887CE010996FC010A
:102A60001192AA95E9F7A986BA86CB86DC86ED860F
:102A7000FE860F87188B29843A844B845C84AD844E
:102A8000BE84CF84D88829813A814B815C81699644
:102A90002FAF69976A963FAF6A976B964FAF6B9768
:102AA0006C965FAF6C976C966CAC7DAC8EAC9FAC4B
:102AB0006C9769AA7AAA8BAA9CAA6D817E818F8164
:102AC00098853B014C016DAA7EAA8FAA98AEA114ED
:102AD000B104C104D10409F004C362147304840472
:102AE000950408F000C100E0201600E0300601E087
:102AF000400600E0500688F41FEF2116310441041F
:102B0000510439F030F088E0E82EF12C012D112D20
:102B100018C0EE24FF24870114C040E0241640E0D2
:102B2000340640E0440641E0540630F0B8E1EB2EB4
:102B3000F12C012D112D05C0A0E1EA2EF12C012D63
:102B4000112DD201C1010E2C04C0B695A795979501
:102B500087950A94D2F78B549E4FDC012C9180E22A
:102B600090E0A0E0B0E08E199F09A00BB10B5C01D2
:102B70006D01A21AB108C108D108A9AEBAAECBAE98
:102B8000DCAEA114B104C104D10409F43FC069ADA5
:102B9000062E04C0220C331C441C551C0A94D2F788
:102BA000A4019301062E04C0220F331F441F551F9A
:102BB0000A94D2F780E290E08A199B096C96CCAC1B
:102BC000DDACEEACFFAC6C9704C0F694E794D79400
:102BD000C7948A95D2F787017601E22AF32A042B5B
:102BE000152BEDAAFEAA0FAB18AF6C968CAD9DAD60
:102BF000AEADBFAD6C9704C0880F991FAA1FBB1F55
:102C00006A95D2F789AB9AABABABBCAB32018824E7
:102C10009924B201A1016070707021964CAF5DAF34
:102C20006EAF7FAF21976DA97EA98FA998ADA40142
:102C300093010E9445227B018C016DA97EA98FA979
:102C400098ADA40193010E944522CA01B9012196C1
:102C50002CAD3DAD4EAD5FAD21970E9426229B016C
:102C6000AC018701FF24EE24A9A8BAA8CBA8DCA850
:102C7000C601AA27BB2757016801A82AB92ACA2A70
:102C8000DB2AA216B306C406D50690F4A20CB31C28
:102C9000C41CD51CA214B304C404D50448F0A21665
:102CA000B306C406D50620F4A20CB31CC41CD51C64
:102CB000A21AB30AC40AD50AC601B501A401930138
:102CC0000E9445227B018C01C601B501A40193013C
:102CD0000E944522CA01B90121962CAD3DAD4EADF1
:102CE0005FAD2197BAC1211431044104510471F43C
:102CF00061E070E080E090E020E030E040E050E013
:102D00000E944522C901DA011C012D0100E02016B4
:102D100000E0300601E0400600E0500688F41FEFB6
:102D2000211631044104510439F030F068E0E62EF8
:102D3000F12C012D112D18C0EE24FF24870114C0A1
:102D400040E0241640E0340640E0440641E05406EA
:102D500030F058E1E52EF12C012D112D05C040E198
:102D6000E42EF12C012D112DD201C1010E2C04C035
:102D7000B695A795979587950A94D2F78B549E4F51
:102D8000DC012C9130E2A32EB12CC12CD12CD60128
:102D9000C5018E199F09A00BB10B7C018D01E21AB0
:102DA000F10801091109E9AEFAAE0BAF1CAFE1144D
:102DB000F1040105110539F464015301A218B308A7
:102DC000C408D508E2C0F9AC6896FFAE68970F2C2E
:102DD00004C0220C331C441C551C0A94D2F78A2DC3
:102DE0008F1964015301082E04C0D694C794B79478
:102DF000A7940A94D2F7A401930104C0220F331FB1
:102E0000441F551FFA94D2F76C966CAC7DAC8EAC17
:102E10009FAC6C9704C096948794779467948A9536
:102E2000D2F784017301E22AF32A042B152BEDA6B5
:102E3000FEA60FA718AB320188249924B201A10184
:102E40006070707025964CAF5DAF6EAF7FAF259709
:102E5000C601B501A40193010E9445227B018C01AA
:102E6000C601B501A40193010E944522CA01B9011E
:102E700025962CAD3DAD4EAD5FAD25970E94262227
:102E80009B01AC018701FF24EE24ADA4BEA4CFA416
:102E9000D8A8C601AA27BB275C016D01AE28BF28B0
:102EA000C02AD12AA216B306C406D50690F4A20CF5
:102EB000B31CC41CD51CA214B304C404D50448F02C
:102EC000A216B306C406D50620F4A20CB31CC41C7B
:102ED000D51CA21AB30AC40AD50AC601B501A401B9
:102EE00093010E9445227B018C01C601B501A4011A
:102EF00093010E944522CA01B90125962CAD3DAD32
:102F00004EAD5FAD25970E9426229B01AC01870143
:102F1000FF24EE248DA59EA5AFA5B8A9A070B07022
:102F200057016801A82AB92ACA2ADB2AA216B306C1
:102F3000C406D50690F4A20CB31CC41CD51CA21464
:102F4000B304C404D50448F0A216B306C406D506DB
:102F500020F4A20CB31CC41CD51C6C96ECACFDACCC
:102F60000EAD1FAD6C9768960FAC689704C0EE0C61
:102F7000FF1C001F111F0A94D2F7E9AAFAAA0BAB93
:102F80001CABA21AB30AC40AD50A320188249924B8
:102F9000B201A1016070707029964CAF5DAF6EAF49
:102FA0007FAF2997C601B501A40193010E94452274
:102FB0007B018C01C601B501A40193010E94452249
:102FC000CA01B90129962CAD3DAD4EAD5FAD299733
:102FD0000E9426229B01AC018701FF24EE24A9A8B0
:102FE000BAA8CBA8DCA8C601AA27BB27570168014D
:102FF000A82AB92ACA2ADB2AA216B306C406D5060D
:1030000090F4A20CB31CC41CD51CA214B304C404B9
:10301000D50448F0A216B306C406D50620F4A20CC7
:10302000B31CC41CD51CA21AB30AC40AD50AC60113
:10303000B501A40193010E9445227B018C01C601C8
:10304000B501A40193010E944522CA01B901299644
:103050002CAD3DAD4EAD5FAD29970E9426229B0160
:10306000AC018701FF24EE2489A99AA9ABA9BCA9C8
:10307000A070B070E82AF92A0A2B1B2BE216F3067F
:103080000407150790F4E20CF31C041D151DE2144F
:10309000F3040405150548F0E216F30604071507C6
:1030A00020F4E20CF31C041D151DE21AF30A040BB4
:1030B000150BD801C70109AC04C0B695A795979523
:1030C00087950A94D2F7898B9A8BAB8BBC8B1D8A20
:1030D0001E8A1F8A188E282F3A894B895C896D8930
:1030E0000CC36A147B048C049D0408F409C300E03B
:1030F000A01600E0B00601E0C00600E0D00688F4AB
:103100001FEFA116B104C104D10439F030F028E05A
:10311000E22EF12C012D112D18C0EE24FF24870181
:1031200014C040E0A41640E0B40640E0C40641E00C
:10313000D40630F098E1E92EF12C012D112D05C0B7
:1031400080E1E82EF12C012D112DD601C5010E2CA8
:1031500004C0B695A795979587950A94D2F78B5496
:103160009E4FDC012C9180E290E0A0E0B0E08E194F
:103170009F09A00BB10B821B9109A109B10900970E
:10318000A105B10509F04FC0A614B704C804D904BD
:1031900058F06C96ECACFDAC0EAD1FAD6C97E21424
:1031A000F3040405150568F16C96ECACFDAC0EADAE
:1031B0001FAD6C97E218F30804091509A4019301E7
:1031C0002A193B094C095D09AA24BB2465016C96A8
:1031D0006CAD7DAD8EAD9FAD6C976E157F05800794
:1031E000910728F4B1E0AB2EB12CC12CD12CDA011F
:1031F000C9018A199B09AC09BD098DAB9EABAFAB68
:10320000B8AFE98AFA8A0B8B1C8B6DA87EA88FA8B1
:1032100098AC6D8A7E8A8F8A988E2E2D3A894B893A
:103220005C896DA96AC267968FAF6797A601950101
:10323000082E04C0220F331F441F551F0A94D2F7D3
:10324000A0E2AA2EA81A6696AFAE6697D201C10177
:1032500004C0B695A79597958795AA94D2F76C0167
:103260007D01C22AD32AE42AF52AC9A6DAA6EBA64A
:10327000FCA68201710167960FAC679704C0EE0C43
:10328000FF1C001F111F0A94D2F7EDA2FEA20FA38C
:1032900018A76401530166960FAC669704C0D694D4
:1032A000C794B794A7940A94D2F7A40193016796A0
:1032B0000FAC679704C0220F331F441F551F0A9499
:1032C000D2F76C968CAD9DADAEADBFAD6C976696EA
:1032D0000FAC669704C0B695A795979587950A9405
:1032E000D2F73C014D01622A732A842A952A69A2E9
:1032F0007AA28BA29CA26C96ECACFDAC0EAD1FAD7D
:103300006C9767960FAC679704C0EE0CFF1C001F0C
:10331000111F0A94D2F7ED8EFE8E0F8F18A349A5C8
:103320005AA56BA57CA53B01882499246070707018
:103330002D964CAF5DAF6EAF7FAF2D97C601B50137
:10334000A40193010E9445227B018C01C601B501B5
:10335000A40193010E944522C901DA011C012D013B
:10336000C201B1012D962CAD3DAD4EAD5FAD2D9797
:103370000E9426229B01AC018701FF24EE24A9A014
:10338000BAA0CBA0DCA0C601AA27BB2757016801C1
:10339000A82AB92ACA2ADB2AA216B306C406D50669
:1033A00000F508942108310841085108E9A4FAA45D
:1033B0000BA51CA5AE0CBF1CC01ED11EAE14BF04B5
:1033C000C006D10670F0A216B306C406D50648F4AE
:1033D00008942108310841085108AE0CBF1CC01EDA
:1033E000D11EA21AB30AC40AD50AC601B501A401A6
:1033F00093010E9445227B018C01C601B501A40105
:1034000093010E944522C901DA013C014D01C4012A
:10341000B3012D962CAD3DAD4EAD5FAD2D970E9405
:1034200026229B01AC018701FF24EE2489A19AA1E9
:10343000ABA1BCA1A070B07057016801A82AB92A3D
:10344000CA2ADB2AA216B306C406D50600F50894DC
:10345000610871088108910869A57AA58BA59CA5CA
:10346000A60EB71EC81ED91EA616B706C806D906D0
:1034700070F0A216B306C406D50648F40894610895
:10348000710881089108A60EB71EC81ED91ED60164
:10349000C501821B930BA40BB50B898F9A8FAB8F41
:1034A000BC8FD1019927882784017301E82AF92A62
:1034B0000A2B1B2B4FEFA42E4FEFB42EC12CD12C77
:1034C000AE20BF20C022D1227801002711276DA095
:1034D0007EA08FA098A44FEF5FEF60E070E06422C1
:1034E0007522862297228DA19EA1AFA1B8A5BD010C
:1034F0008827992765966CAF7DAF8EAF9FAF659794
:10350000C601B501A40193010E94262261966CAF09
:103510007DAF8EAF9FAF6197C601B50165962CADAB
:103520003DAD4EAD5FAD65970E9426221B012C017B
:10353000C801B701A40193010E9426225B016C011E
:10354000C801B70165962CAD3DAD4EAD5FAD659739
:103550000E9426227B018C01A6019501220D331DBC
:10356000441D551D61966CAC7DAC8EAC9FAC6197D3
:10357000C401AA27BB27280F391F4A1F5B1F2A1522
:103580003B054C055D0548F4812C912CE1E0AE2E05
:10359000B12CE80CF91C0A1D1B1DCA01AA27BB2768
:1035A00057016801A80EB91ECA1EDB1EA9013327E8
:1035B000222761968CAD9DADAEADBFAD6197A07079
:1035C000B070280F391F4A1F5B1FE98CFA8C0B8DD6
:1035D0001C8DEA14FB040C051D0570F0AE14BF042D
:1035E000C006D10669F56D8D7E8D8F8D98A162170D
:1035F00073078407950720F5DA01C9016DA07EA045
:103600008FA098A486199709A809B909E9A4FAA472
:103610000BA51CA5AE18BF08C00AD10AEE24FF24D2
:103620008701281739074A075B0728F421E0E22EB3
:10363000F12C012D112DAE18BF08C00AD10A02C00D
:10364000DA01C9016D8C7E8C8F8C98A0681A790A7A
:103650008A0A9B0A498D5A8D6B8D7C8D4A195B09AC
:103660006C097D095A016B012224332421016D8DDF
:103670007E8D8F8D98A1661577058805990528F4AC
:1036800081E0282E312C412C512C86017501E21845
:10369000F30804091509A801970166960FAC66970F
:1036A00004C0220F331F441F551F0A94D2F7D401C0
:1036B000C30167960FAC679704C0B695A795979519
:1036C00087950A94D2F7282B392B4A2B5B2B298B11
:1036D0003A8B4B8B5C8B67960FAC679704C0169543
:1036E0000795F794E7940A94D2F7ED8AFE8A0F8B38
:1036F000188F3A894B895C896E2D7E898F89988DC8
:10370000C55ADF4FE2E10C948322A0E2B0E0EBE87F
:10371000FBE10C94672269837A838B839C832D83DE
:103720003E834F835887CE010196BE01675F7F4F6E
:103730000E94541FCE010596BE016F5E7F4F0E940E
:10374000541F9985923088F089898230C8F094306E
:1037500019F4823051F404C0843029F4923081F499
:103760008DEA91E0C6C0923049F420E09A858A89BA
:10377000981321E02A87CE010996BBC0823049F414
:1037800020E09A858A89981321E02A8BCE01419600
:10379000B0C02D843E844F8458886D887E888F8881
:1037A000988CEE24FF248701AA24BB24650140E005
:1037B00050E060E070E0E0E0F0E0C1018170907006
:1037C000892BE9F0E60CF71C081D191D9A01AB01C5
:1037D0002A0D3B1D4C1D5D1D80E090E0A0E0B0E097
:1037E000E614F7040805190520F481E090E0A0E054
:1037F000B0E0BA01A901480F591F6A1F7B1FAA0C2C
:10380000BB1CCC1CDD1C97FE08C081E090E0A0E052
:10381000B0E0A82AB92ACA2ADB2A3196E032F1059B
:1038200049F0660C771C881C991C56944794379471
:103830002794C3CFFA85EA892B893C898B859C859F
:10384000280F391F2E5F3F4F17C0CA01817090703B
:10385000892B61F016950795F794E79480E090E046
:10386000A0E0B0E8E82AF92A0A2B1B2B7695679589
:10387000579547952F5F3F4F77FDE7CF0CC0440F1B
:10388000551F661F771F17FD4160EE0CFF1C001FC0
:10389000111F21503040403090E0590790E06907F7
:1038A00090E4790760F32B8F3C8FDB01CA018F779F
:1038B0009070A070B07080349105A105B10561F4DD
:1038C00047FD0AC0E114F1040105110529F0405C2F
:1038D0005F4F6F4F7F4F40781A8EFE1711F081E0D7
:1038E0008A8F4D8F5E8F6F8F78A383E0898FCE0193
:1038F00049960E947F1EA096E2E10C948322A8E1E3
:10390000B0E0E5E8FCE10C946F2269837A838B8355
:103910009C832D833E834F835887B9E0EB2EF12C97
:10392000EC0EFD1ECE010196B7010E94541F8E01C0
:103930000F5E1F4FCE010596B8010E94541F2985C6
:10394000223008F47EC03989323010F4B8017CC0CE
:103950008A859A8989278A87243011F0223031F4A8
:10396000231709F06EC06DEA71E06EC0343039F48F
:103970001D861E861F86188A1C861B8604C0323050
:1039800021F484E08987B7015FC02B853C858B8952
:103990009C89281B390B3C872B87ED84FE840F857F
:1039A0001889AD88BE88CF88D88CEA14FB040C0532
:1039B0001D0540F4EE0CFF1C001F111F215030406C
:1039C0003C872B8720E030E040E050E080E090E052
:1039D000A0E0B0E460E070E0EA14FB040C051D0513
:1039E00040F0282B392B4A2B5B2BEA18FB080C09DB
:1039F0001D09B695A79597958795EE0CFF1C001F9E
:103A0000111F6F5F7F4F6F31710531F7DA01C90107
:103A10008F779070A070B07080349105A105B105CA
:103A200061F427FD0AC0E114F1040105110529F034
:103A3000205C3F4F4F4F5F4F20782D873E874F8749
:103A4000588BBE01675F7F4FCB010E947F1E689637
:103A5000EAE00C948B22A8E1B0E0E1E3FDE10C94F4
:103A6000732269837A838B839C832D833E834F8368
:103A7000588789E0E82EF12CEC0EFD1ECE01019650
:103A8000B7010E94541F8E010F5E1F4FCE01059695
:103A9000B8010E94541F8985823040F089898230A4
:103AA00028F0C701B8010E94762101C08FEF689607
:103AB000E6E00C948F22A8E1B0E0E1E6FDE10C9491
:103AC000732269837A838B839C832D833E834F8308
:103AD000588789E0E82EF12CEC0EFD1ECE010196F0
:103AE000B7010E94541F8E010F5E1F4FCE01059635
:103AF000B8010E94541F8985823040F08989823044
:103B000028F0C701B8010E94762101C081E06896C3
:103B1000E6E00C948F22A8E0B0E0E1E9FDE10C942E
:103B20006F227B018C01611571058105910519F4E6
:103B300082E0898360C083E089838EE1C82ED12C26
:103B4000DC82CB82ED82FE820F831887C801B70129
:103B50000E94041EFC013197F7FF3BC02227332748
:103B60002E1B3F0B57016801022E04C0D694C79448
:103B7000B794A7940A94D2F740E050E060E070E078
:103B800081E090E0A0E0B0E004C0880F991FAA1F78
:103B9000BB1F2A95D2F70197A109B1098E219F2158
:103BA000A023B1230097A105B10521F041E050E029
:103BB00060E070E04A295B296C297D294D835E8392
:103BC0006F8378878EE190E08E1B9F0B9C838B83A5
:103BD00012C0309781F00E2E04C0EE0CFF1C001FA7
:103BE000111F0A94D2F7ED82FE820F831887CE1A36
:103BF000DF0ADC82CB821A82CE0101960E947F1EF0
:103C00002896EAE00C948B22EF92FF920F931F9379
:103C10007B018C0180E0E81680E0F80681E008076F
:103C200080E0180788F48FEFE816F104010511050C
:103C300031F028F088E090E0A0E0B0E017C080E02C
:103C400090E0A0E0B0E012C080E0E81680E0F80666
:103C500080E0080781E0180728F088E190E0A0E004
:103C6000B0E004C080E190E0A0E0B0E020E230E00D
:103C700040E050E0281B390B4A0B5B0B04C0169543
:103C80000795F794E7948A95D2F7F701EB54FE4F26
:103C90008081281B310941095109C9011F910F91E8
:103CA000FF90EF900895EF92FF920F931F937B0187
:103CB0008C0120E030E040E05FE40E942B1D88236F
:103CC0008CF0C801B70120E030E040E05FE40E94E2
:103CD00018210E94CF219B01AC0120503040404070
:103CE000504806C0C801B7010E94CF219B01AC011A
:103CF000B901CA011F910F91FF90EF900895DF92D3
:103D0000EF92FF920F931F93FC01E480F5800681F0
:103D10001781D1808081823048F480E090E0A0E17A
:103D2000B0E0E82AF92A0A2B1B2BA5C0843009F43D
:103D30009FC0823021F4EE24FF24870105C0E114E6
:103D4000F1040105110519F4E0E0F0E096C062818C
:103D500073819FEF623879070CF05BC022E83FEF78
:103D6000261B370B2A3131052CF020E030E040E0F3
:103D700050E02AC0B801A701022E04C076956795CD
:103D8000579547950A94D2F781E090E0A0E0B0E023
:103D900004C0880F991FAA1FBB1F2A95D2F701974D
:103DA000A109B1098E219F21A023B1230097A1056C
:103DB000B10521F081E090E0A0E0B0E09A01AB0114
:103DC000282B392B4A2B5B2BDA01C9018F77907096
:103DD000A070B07080349105A105B10539F427FFBA
:103DE00009C0205C3F4F4F4F5F4F04C0215C3F4FE5
:103DF0004F4F5F4FE0E0F0E02030A0E03A07A0E056
:103E00004A07A0E45A0710F0E1E0F0E079018A01E6
:103E100027C06038710564F5FB01E158FF4FD801F8
:103E2000C7018F779070A070B07080349105A105A4
:103E3000B10539F4E7FE0DC080E490E0A0E0B0E009
:103E400004C08FE390E0A0E0B0E0E80EF91E0A1F86
:103E50001B1F17FF05C016950795F794E794319639
:103E600087E016950795F794E7948A95D1F705C0F2
:103E7000EE24FF248701EFEFF0E06E2F67956627B1
:103E80006795902F9F77D794DD24D7948E2F8695B2
:103E9000492F462B582F5D29B701CA011F910F9159
:103EA000FF90EF90DF900895FC01DB01408151818C
:103EB0002281622F6F7770E0221F2227221F9381B9
:103EC000892F880F822B282F30E0991F9927991F5F
:103ED00011969C93119721153105A9F541155105AE
:103EE0006105710511F482E037C082E89FEF1396F7
:103EF0009C938E9312979A01AB0167E0220F331FB8
:103F0000441F551F6A95D1F783E08C930DC0220F93
:103F1000331F441F551F12968D919C911397019743
:103F200013969C938E931297203080E0380780E0A0
:103F3000480780E4580758F314962D933D934D930A
:103F40005C93179708952F3F310579F4411551057A
:103F50006105710519F484E08C93089564FF03C032
:103F600081E08C9312C01C9210C02F5730401396E2
:103F70003C932E93129783E08C9387E0440F551F58
:103F8000661F771F8A95D1F7706414964D935D93E1
:103F90006D937C9317970895A0E0B0E0E2EDFFE108
:103FA0000C946722DC012B01FA019C91923008F4F9
:103FB00039C1EB018881823008F433C1943069F44F
:103FC000843009F02FC111969C911197898198171F
:103FD00009F428C1ADEAB1E025C1843009F421C15A
:103FE0008230A9F4923009F01DC19A01AD0188E038
:103FF000EA010990AE01E90109929E018150C1F7E1
:10400000E201898111969C918923818308C19230B4
:1040100009F407C112962D903C901397EB018A8109
:104020009B811496AD90BD90CD90DC901797EC805D
:10403000FD800E811F819101281B390BB90137FFCB
:1040400004C066277727621B730B603271050CF082
:1040500061C0121613066CF537014801062E04C024
:1040600096948794779467940A94D2F721E030E08D
:1040700040E050E004C0220F331F441F551F6A95D3
:10408000D2F721503040404050402E213F21402364
:104090005123211531054105510521F021E030E082
:1040A00040E050E079018A01E628F728082919291B
:1040B0003CC0232BD1F1260E371E35014601062EBA
:1040C00004C096948794779467940A94D2F721E079
:1040D00030E040E050E004C0220F331F441F551F62
:1040E0006A95D2F721503040404050402A213B2170
:1040F0004C215D21211531054105510521F021E0BB
:1041000030E040E050E059016A01A628B728C828ED
:10411000D9280BC0821593052CF01C01AA24BB24BE
:10412000650103C0EE24FF24870111969C91D20102
:1041300011968C91981709F445C0992339F0A8017C
:1041400097012A193B094C095D0906C0A601950192
:104150002E193F09400B510B57FD08C011823382C5
:10416000228224833583468357831DC081E0818367
:104170003382228288279927DC01821B930BA40BB0
:10418000B50B84839583A683B7830DC0220F331F9D
:10419000441F551F2483358346835783828193812F
:1041A0000197938382832481358146815781DA0187
:1041B000C9010197A109B1098F5F9F4FAF4FBF435D
:1041C00028F30BC0918333822282EA0CFB1C0C1D66
:1041D0001D1DE482F5820683178383E0808324819A
:1041E00035814681578157FF1AC0C901AA2797FD1B
:1041F000A095BA2F81709070A070B07056954795B9
:1042000037952795822B932BA42BB52B84839583ED
:10421000A683B78382819381019693838283DF0192
:1042200001C0D201CD01CDB7DEB7E2E10C9483220B
:10423000A0E2B0E0EEE1F1E20C94732269837A83AC
:104240008B839C832D833E834F835887E9E0EE2E3A
:10425000F12CEC0EFD1ECE010196B7010E94541FF9
:104260008E010F5E1F4FCE010596B8010E94541FAC
:104270008A8991E089278A8BC701B801AE01475E20
:104280005F4F0E94CC1F0E947F1EA096E6E00C9418
:104290008F22A0E2B0E0EFE4F1E20C947322698394
:1042A0007A838B839C832D833E834F835887F9E0E9
:1042B000EF2EF12CEC0EFD1ECE010196B7010E94EF
:1042C000541F8E010F5E1F4FCE010596B8010E944C
:1042D000541FC701B801AE01475E5F4F0E94CC1F5B
:1042E0000E947F1EA096E6E00C948F221F93DC01B3
:1042F000FB019C91923008F447C08081823008F421
:1043000043C0943051F411961C91843099F5818109
:10431000682F70E0611B71093FC0843021F092303A
:1043200031F48230B9F18181882389F12DC0119651
:104330001C9111978230F1F081811817D9F41296EF
:104340002D913C911397828193818217930794F06A
:1043500028173907BCF014968D919D910D90BC9152
:10436000A02D2481358146815781281739074A07B6
:104370005B0718F4112341F00AC082179307A407C2
:10438000B50740F4112319F061E070E005C06FEF4C
:104390007FEF02C060E070E0CB011F910895ACE0B8
:1043A000B0E0E5EDF1E20C94772269837A838B83A8
:1043B0009C83CE010196BE016B5F7F4F0E94541F0C
:1043C0008D81823061F1823050F1843021F48E8110
:1043D000882351F12EC02F81388537FD20C06E8192
:1043E0002F3131051CF06623F9F023C08EE190E0F7
:1043F000821B930B29853A854B855C8504C05695B5
:104400004795379527958A95D2F76623B1F0509551
:104410004095309521953F4F4F4F5F4F0EC020E0A4
:1044200030E040E050E009C02FEF3FEF4FEF5FE793
:1044300004C020E030E040E050E8B901CA012C9609
:10444000E2E00C949322F8940C949E22629FD00197
:10445000739FF001829FE00DF11D649FE00DF11D3F
:10446000929FF00D839FF00D749FF00D659FF00DEE
:104470009927729FB00DE11DF91F639FB00DE11DDB
:10448000F91FBD01CF0111240895A1E21A2EAA1B24
:10449000BB1BFD010DC0AA1FBB1FEE1FFF1FA217F4
:1044A000B307E407F50720F0A21BB30BE40BF50BF1
:1044B000661F771F881F991F1A9469F7609570957A
:1044C000809590959B01AC01BD01CF0108952F927D
:1044D0003F924F925F926F927F928F929F92AF9294
:1044E000BF92CF92DF92EF92FF920F931F93CF93E1
:1044F000DF93CDB7DEB7CA1BDB0B0FB6F894DEBF78
:104500000FBECDBF09942A88398848885F846E849D
:104510007D848C849B84AA84B984C884DF80EE80E7
:10452000FD800C811B81AA81B981CE0FD11D0FB6F0
:10453000F894DEBF0FBECDBFED010895F894FFCF14
:104540001457656C636F6D6520746F20536D6172D5
:104550007400486F6D652053797374656D0046690A
:104560007273742074696D65206C6F67696E005397
:1045700065742050617373776F7264005061737358
:10458000776F72643A0050617373776F726420536F
:1045900061766564004E6F206D6F7265205472699C
:1045A000657300776169742000205365636F6E64E2
:1045B000732000456E746572205061737320636FC1
:1045C00064650050617373776F726420436F727219
:1045D0006563740057656C636F6D652E2E005772AE
:1045E0006F6E672050617373776F726400506C65F3
:1045F0006173652054727920616761696E00313A98
:10460000526F6F6D312020323A526F6F6D3200332E
:104610003A526F6F6D332020343A4D6F726500311E
:104620003A526F6F6D342020323A545600333A417B
:1046300049525F434F4E4420343A52455400313A78
:104640005365742054656D70657261747572650090
:10465000323A4149525F434F4E44204374726C00DA
:10466000536574205465706D3A5F5F0054656D70DA
:10467000657261747572652073656E7400373839C0
:104680004134353642313233434530434400000033
:1046900000000000000001020203030303040404FD
:1046A00004040404040505050505050505050505BF
:1046B000050505050506060606060606060606069F
:1046C000060606060606060606060606060606068A
:1046D000060606060607070707070707070707076F
:1046E000070707070707070707070707070707075A
:1046F000070707070707070707070707070707074A
:104700000707070707070707070707070707070739
:10471000070707070708080808080808080808081E
:104720000808080808080808080808080808080809
:1047300008080808080808080808080808080808F9
:1047400008080808080808080808080808080808E9
:1047500008080808080808080808080808080808D9
:1047600008080808080808080808080808080808C9
:1047700008080808080808080808080808080808B9
:1047800008080808080808080808080808080808A9
:06479000080808080800FB
:00000001FF
